{
  "transactions": [
    {
      "hash": "0x2c42af804e9628435664959aa1500d1f1a3674b1e401bc271d1ab2f27ffa932c",
      "transactionType": "CALL",
      "contractName": null,
      "contractAddress": "0x579bB3a775c831526D5E94EF9ccd6601F62790Bc",
      "function": "create(string,string,bytes32,(address,uint8,address,bool)[],uint256,bool,(address,address,address),address,(bool,bool,bool,bool))",
      "arguments": [
        "\"Constant Sum Pool\"",
        "\"CS-50scUSD-50scDAI\"",
        "0x2e772e78952a4bf854c106dd78e631510b0c95bd0f1a05ff5523f7afcdfab2d2",
        "[(0x66B4cF3Be49431371E4241C462B4A75ae3a6E986, 0, 0x0000000000000000000000000000000000000000, false), (0x69221a99e5Bc30E0cf891992e958E3Ba3815bfc6, 0, 0x0000000000000000000000000000000000000000, false)]",
        "1000000000000000",
        "true",
        "(0x0000000000000000000000000000000000000000, 0x0000000000000000000000000000000000000000, 0x0000000000000000000000000000000000000000)",
        "0x0000000000000000000000000000000000000000",
        "(false, false, false, false)"
      ],
      "transaction": {
        "type": "0x02",
        "from": "0x5036388c540994ed7b74b82f71175a441f85bda1",
        "to": "0x579bb3a775c831526d5e94ef9ccd6601f62790bc",
        "gas": "0x281dd3",
        "value": "0x0",
        "data": "0x69b9322400000000000000000000000000000000000000000000000000000000000001c000000000000000000000000000000000000000000000000000000000000002002e772e78952a4bf854c106dd78e631510b0c95bd0f1a05ff5523f7afcdfab2d2000000000000000000000000000000000000000000000000000000000000024000000000000000000000000000000000000000000000000000038d7ea4c680000000000000000000000000000000000000000000000000000000000000000001000000000000000000000000000000000000000000000000000000000000000000000000000000000000000000000000000000000000000000000000000000000000000000000000000000000000000000000000000000000000000000000000000000000000000000000000000000000000000000000000000000000000000000000000000000000000000000000000000000000000000000000000000000000000000000000000000000000000000000000000000000000000000000000000000000000000000000000000000000000000000000000000000000000000000000000000000000000000000000000000000000000000000000000000000000000000000000000000000000000000000000000000000000000000000000000011436f6e7374616e742053756d20506f6f6c000000000000000000000000000000000000000000000000000000000000000000000000000000000000000000001243532d353073635553442d353073634441490000000000000000000000000000000000000000000000000000000000000000000000000000000000000000000200000000000000000000000066b4cf3be49431371e4241c462b4a75ae3a6e98600000000000000000000000000000000000000000000000000000000000000000000000000000000000000000000000000000000000000000000000000000000000000000000000000000000000000000000000000000000000000000000000000000000000000000000000069221a99e5bc30e0cf891992e958e3ba3815bfc6000000000000000000000000000000000000000000000000000000000000000000000000000000000000000000000000000000000000000000000000000000000000000000000000000000000000000000000000000000000000000000000000",
        "nonce": "0x331",
        "accessList": []
      },
      "additionalContracts": [
        {
          "transactionType": "CREATE2",
          "address": "0x0cE51ECF4b152047d27F474eAB12000F85C7678d",
          "initCode": "0x67363d3d37363d34f03d5260086018f3"
        },
        {
          "transactionType": "CREATE",
          "address": "0x2180510791a7150c74FF25c7322466BbD5fB665a",
          "initCode": "0x61018060405234801562000011575f80fd5b5060405162001a0538038062001a0583398101604081905262000034916200028f565b8282828282604051806040016040528060018152602001603160f81b815250620000685f836200014660201b90919060201c565b610120526200007981600162000146565b61014052815160208084019190912060e052815190820120610100524660a0526200010660e05161010051604080517f8b73c3c69bb8fe3d512ecc4cf759cc79239f7b179b0ffacaa9a75d522b39400f60208201529081019290925260608201524660808201523060a08201525f9060c00160405160208183030381529060405280519060200120905090565b60805250503060c0526001600160a01b03166101605260036200012a83826200039d565b5060046200013982826200039d565b50505050505050620004c1565b5f60208351101562000165576200015d836200017e565b905062000178565b816200017284826200039d565b5060ff90505b92915050565b5f80829050601f81511115620001b4578260405163305a27a960e01b8152600401620001ab919062000469565b60405180910390fd5b8051620001c1826200049d565b179392505050565b634e487b7160e01b5f52604160045260245ffd5b5f5b83811015620001f9578181015183820152602001620001df565b50505f910152565b5f82601f83011262000211575f80fd5b81516001600160401b03808211156200022e576200022e620001c9565b604051601f8301601f19908116603f01168101908282118183101715620002595762000259620001c9565b8160405283815286602085880101111562000272575f80fd5b62000285846020830160208901620001dd565b9695505050505050565b5f805f60608486031215620002a2575f80fd5b83516001600160a01b0381168114620002b9575f80fd5b60208501519093506001600160401b0380821115620002d6575f80fd5b620002e48783880162000201565b93506040860151915080821115620002fa575f80fd5b50620003098682870162000201565b9150509250925092565b600181811c908216806200032857607f821691505b6020821081036200034757634e487b7160e01b5f52602260045260245ffd5b50919050565b601f8211156200039857805f5260205f20601f840160051c81016020851015620003745750805b601f840160051c820191505b8181101562000395575f815560010162000380565b50505b505050565b81516001600160401b03811115620003b957620003b9620001c9565b620003d181620003ca845462000313565b846200034d565b602080601f83116001811462000407575f8415620003ef5750858301515b5f19600386901b1c1916600185901b17855562000461565b5f85815260208120601f198616915b82811015620004375788860151825594840194600190910190840162000416565b50858210156200045557878501515f19600388901b60f8161c191681555b505060018460011b0185555b505050505050565b602081525f825180602084015262000489816040850160208701620001dd565b601f01601f19169190910160400192915050565b8051602080830151919081101562000347575f1960209190910360031b1b16919050565b60805160a05160c05160e051610100516101205161014051610160516114a96200055c5f395f81816102e60152818161041a015281816104f9015281816105a6015281816106ec015281816107420152818161088901528181610a0c01528181610ab20152610b2f01525f610ccd01525f610ca101525f610c4a01525f610c2201525f610b7d01525f610ba701525f610bd101526114a95ff3fe608060405234801561000f575f80fd5b5060043610610153575f3560e01c8063679aefce116100bf5780638d928af8116100795780638d928af8146102d957806395d89b4114610310578063a9059cbb14610318578063ce20ece71461032b578063d505accf14610336578063dd62ed3e14610349575f80fd5b8063679aefce1461026857806370a082311461027057806372c98186146102835780637ecebe001461029857806380de451d146102ab57806384b0196e146102be575f80fd5b806323de66511161011057806323de6651146101f457806330adf81f14610209578063313ce567146102305780633644e5151461023f5780635687f2b814610247578063654cf15d1461025a575f80fd5b806301ffc9a71461015757806306fdde0314610190578063095ea7b3146101a557806316a0b3e0146101b857806318160ddd146101d957806323b872dd146101e1575b5f80fd5b61017b610165366004610fdc565b6001600160e01b0319166301ffc9a760e01b1490565b60405190151581526020015b60405180910390f35b61019861035c565b6040516101879190611046565b61017b6101b3366004611073565b6103ec565b6101cb6101c636600461114a565b610493565b604051908152602001610187565b6101cb6104e2565b61017b6101ef366004611194565b610570565b610207610202366004611194565b61061d565b005b6101cb7f6e71edae12b1b97f4d1f60370fef10105fa2faae0126114a169c64845d6126c981565b60405160128152602001610187565b6101cb610677565b610207610255366004611194565b610680565b67016345785d8a00006101cb565b6101cb6106cd565b6101cb61027e3660046111cd565b61071b565b6101cb6102913660046111e6565b6020013590565b6101cb6102a63660046111cd565b6107ad565b6101cb6102b936600461121d565b6107ca565b6102c661080a565b6040516101879796959493929190611257565b6040516001600160a01b037f0000000000000000000000000000000000000000000000000000000000000000168152602001610187565b61019861084c565b61017b610326366004611073565b61085b565b64e8d4a510006101cb565b6102076103443660046112ee565b6108ba565b6101cb61035736600461135b565b610a83565b60606003805461036b9061138c565b80601f01602080910402602001604051908101604052809291908181526020018280546103979061138c565b80156103e25780601f106103b9576101008083540402835291602001916103e2565b820191905f5260205f20905b8154815290600101906020018083116103c557829003601f168201915b5050505050905090565b60405163e1f21c6760e01b81523360048201526001600160a01b038381166024830152604482018390525f917f00000000000000000000000000000000000000000000000000000000000000009091169063e1f21c67906064015b6020604051808303815f875af1158015610463573d5f803e3d5ffd5b505050506040513d601f19601f8201168201806040525081019061048791906113c4565b50600190505b92915050565b5f8061049e856107ca565b9050806104ab84826113f7565b8686815181106104bd576104bd61140e565b60200260200101516104cf9190611422565b6104d99190611435565b95945050505050565b6040516339370aa960e21b81523060048201525f907f00000000000000000000000000000000000000000000000000000000000000006001600160a01b03169063e4dc2aa4906024015b602060405180830381865afa158015610547573d5f803e3d5ffd5b505050506040513d601f19601f8201168201806040525081019061056b9190611448565b905090565b604051630aed65f560e11b81523360048201526001600160a01b0384811660248301528381166044830152606482018390525f917f0000000000000000000000000000000000000000000000000000000000000000909116906315dacbea906084016020604051808303815f875af11580156105ee573d5f803e3d5ffd5b505050506040513d601f19601f8201168201806040525081019061061291906113c4565b506001949350505050565b610625610b24565b816001600160a01b0316836001600160a01b03167fddf252ad1be2c89b69c2b068fc378daa952ba7f163c4a11628f55a4df523b3ef8360405161066a91815260200190565b60405180910390a3505050565b5f61056b610b71565b610688610b24565b816001600160a01b0316836001600160a01b03167f8c5be1e5ebec7d5bd14f71427d1e84f3dd0314c0f7b2291e5b200ac8c7c3b9258360405161066a91815260200190565b604051634f037ee760e01b81523060048201525f906001600160a01b037f00000000000000000000000000000000000000000000000000000000000000001690634f037ee79060240161052c565b604051633de222bb60e21b81523060048201526001600160a01b0382811660248301525f917f00000000000000000000000000000000000000000000000000000000000000009091169063f7888aec90604401602060405180830381865afa158015610789573d5f803e3d5ffd5b505050506040513d601f19601f8201168201806040525081019061048d9190611448565b6001600160a01b0381165f9081526002602052604081205461048d565b5f816001815181106107de576107de61140e565b6020026020010151825f815181106107f8576107f861140e565b602002602001015161048d9190611422565b5f6060805f805f606061081b610c9a565b610823610cc6565b604080515f80825260208201909252600f60f81b9b939a50919850469750309650945092509050565b60606004805461036b9061138c565b6040516317d5759960e31b81523360048201526001600160a01b038381166024830152604482018390525f917f00000000000000000000000000000000000000000000000000000000000000009091169063beabacc890606401610447565b834211156108e35760405163313c898160e11b8152600481018590526024015b60405180910390fd5b5f7f6e71edae12b1b97f4d1f60370fef10105fa2faae0126114a169c64845d6126c988888861092e8c6001600160a01b03165f90815260026020526040902080546001810190915590565b6040805160208101969096526001600160a01b0394851690860152929091166060840152608083015260a082015260c0810186905260e0016040516020818303038152906040528051906020012090505f61098882610cf3565b90505f61099782878787610d1f565b9050896001600160a01b0316816001600160a01b0316146109de576040516325c0072360e11b81526001600160a01b0380831660048301528b1660248201526044016108da565b60405163e1f21c6760e01b81526001600160a01b038b811660048301528a81166024830152604482018a90527f0000000000000000000000000000000000000000000000000000000000000000169063e1f21c67906064016020604051808303815f875af1158015610a52573d5f803e3d5ffd5b505050506040513d601f19601f82011682018060405250810190610a7691906113c4565b5050505050505050505050565b60405163927da10560e01b81523060048201526001600160a01b03838116602483015282811660448301525f917f00000000000000000000000000000000000000000000000000000000000000009091169063927da10590606401602060405180830381865afa158015610af9573d5f803e3d5ffd5b505050506040513d601f19601f82011682018060405250810190610b1d9190611448565b9392505050565b336001600160a01b037f00000000000000000000000000000000000000000000000000000000000000001614610b6f5760405163089676d560e01b81523360048201526024016108da565b565b5f306001600160a01b037f000000000000000000000000000000000000000000000000000000000000000016148015610bc957507f000000000000000000000000000000000000000000000000000000000000000046145b15610bf357507f000000000000000000000000000000000000000000000000000000000000000090565b61056b604080517f8b73c3c69bb8fe3d512ecc4cf759cc79239f7b179b0ffacaa9a75d522b39400f60208201527f0000000000000000000000000000000000000000000000000000000000000000918101919091527f000000000000000000000000000000000000000000000000000000000000000060608201524660808201523060a08201525f9060c00160405160208183030381529060405280519060200120905090565b606061056b7f00000000000000000000000000000000000000000000000000000000000000005f610d4b565b606061056b7f00000000000000000000000000000000000000000000000000000000000000006001610d4b565b5f61048d610cff610b71565b8360405161190160f01b8152600281019290925260228201526042902090565b5f805f80610d2f88888888610df4565b925092509250610d3f8282610ebc565b50909695505050505050565b606060ff8314610d6557610d5e83610f78565b905061048d565b818054610d719061138c565b80601f0160208091040260200160405190810160405280929190818152602001828054610d9d9061138c565b8015610de85780601f10610dbf57610100808354040283529160200191610de8565b820191905f5260205f20905b815481529060010190602001808311610dcb57829003601f168201915b5050505050905061048d565b5f80807f7fffffffffffffffffffffffffffffff5d576e7357a4501ddfe92f46681b20a0841115610e2d57505f91506003905082610eb2565b604080515f808252602082018084528a905260ff891692820192909252606081018790526080810186905260019060a0016020604051602081039080840390855afa158015610e7e573d5f803e3d5ffd5b5050604051601f1901519150506001600160a01b038116610ea957505f925060019150829050610eb2565b92505f91508190505b9450945094915050565b5f826003811115610ecf57610ecf61145f565b03610ed8575050565b6001826003811115610eec57610eec61145f565b03610f0a5760405163f645eedf60e01b815260040160405180910390fd5b6002826003811115610f1e57610f1e61145f565b03610f3f5760405163fce698f760e01b8152600481018290526024016108da565b6003826003811115610f5357610f5361145f565b03610f74576040516335e2f38360e21b8152600481018290526024016108da565b5050565b60605f610f8483610fb5565b6040805160208082528183019092529192505f91906020820181803683375050509182525060208101929092525090565b5f60ff8216601f81111561048d57604051632cd44ac360e21b815260040160405180910390fd5b5f60208284031215610fec575f80fd5b81356001600160e01b031981168114610b1d575f80fd5b5f81518084525f5b818110156110275760208185018101518683018201520161100b565b505f602082860101526020601f19601f83011685010191505092915050565b602081525f610b1d6020830184611003565b80356001600160a01b038116811461106e575f80fd5b919050565b5f8060408385031215611084575f80fd5b61108d83611058565b946020939093013593505050565b634e487b7160e01b5f52604160045260245ffd5b5f82601f8301126110be575f80fd5b8135602067ffffffffffffffff808311156110db576110db61109b565b8260051b604051601f19603f830116810181811084821117156111005761110061109b565b604052938452602081870181019490810192508785111561111f575f80fd5b6020870191505b8482101561113f57813583529183019190830190611126565b979650505050505050565b5f805f6060848603121561115c575f80fd5b833567ffffffffffffffff811115611172575f80fd5b61117e868287016110af565b9660208601359650604090950135949350505050565b5f805f606084860312156111a6575f80fd5b6111af84611058565b92506111bd60208501611058565b9150604084013590509250925092565b5f602082840312156111dd575f80fd5b610b1d82611058565b5f602082840312156111f6575f80fd5b813567ffffffffffffffff81111561120c575f80fd5b820160e08185031215610b1d575f80fd5b5f6020828403121561122d575f80fd5b813567ffffffffffffffff811115611243575f80fd5b61124f848285016110af565b949350505050565b60ff60f81b881681525f602060e0602084015261127760e084018a611003565b8381036040850152611289818a611003565b606085018990526001600160a01b038816608086015260a0850187905284810360c0860152855180825260208088019350909101905f5b818110156112dc578351835292840192918401916001016112c0565b50909c9b505050505050505050505050565b5f805f805f805f60e0888a031215611304575f80fd5b61130d88611058565b965061131b60208901611058565b95506040880135945060608801359350608088013560ff8116811461133e575f80fd5b9699959850939692959460a0840135945060c09093013592915050565b5f806040838503121561136c575f80fd5b61137583611058565b915061138360208401611058565b90509250929050565b600181811c908216806113a057607f821691505b6020821081036113be57634e487b7160e01b5f52602260045260245ffd5b50919050565b5f602082840312156113d4575f80fd5b81518015158114610b1d575f80fd5b634e487b7160e01b5f52601160045260245ffd5b808202811582820484141761048d5761048d6113e3565b634e487b7160e01b5f52603260045260245ffd5b8082018082111561048d5761048d6113e3565b8181038181111561048d5761048d6113e3565b5f60208284031215611458575f80fd5b5051919050565b634e487b7160e01b5f52602160045260245ffdfea26469706673582212200791ddd70fe068fc1083da2f8152883c13443e68eadfba47c49ccfce1274fea664736f6c6343000818003300000000000000000000000092b5c1cb2999c45804a60d6529d77deef00fb839000000000000000000000000000000000000000000000000000000000000006000000000000000000000000000000000000000000000000000000000000000a00000000000000000000000000000000000000000000000000000000000000011436f6e7374616e742053756d20506f6f6c000000000000000000000000000000000000000000000000000000000000000000000000000000000000000000001243532d353073635553442d353073634441490000000000000000000000000000"
        }
      ],
      "isFixedGasLimit": false
    },
    {
      "hash": "0x7f2d2a9a7d809a0532982352c02895e7600cb99d5b94c159bd6b018fec88078c",
      "transactionType": "CALL",
      "contractName": "MockToken2",
      "contractAddress": "0x66B4cF3Be49431371E4241C462B4A75ae3a6E986",
      "function": "approve(address,uint256)",
      "arguments": [
        "0x000000000022D473030F116dDEE9F6B43aC78BA3",
        "115792089237316195423570985008687907853269984665640564039457584007913129639935"
      ],
      "transaction": {
        "type": "0x02",
        "from": "0x5036388c540994ed7b74b82f71175a441f85bda1",
        "to": "0x66b4cf3be49431371e4241c462b4a75ae3a6e986",
        "gas": "0x10a53",
        "value": "0x0",
        "data": "0x095ea7b3000000000000000000000000000000000022d473030f116ddee9f6b43ac78ba3ffffffffffffffffffffffffffffffffffffffffffffffffffffffffffffffff",
        "nonce": "0x332",
        "accessList": []
      },
      "additionalContracts": [],
      "isFixedGasLimit": false
    },
    {
      "hash": "0xfb3de88108924818524709ca66a492b143976d07f56f5b6b48433bc01500c352",
      "transactionType": "CALL",
      "contractName": "MockToken1",
      "contractAddress": "0x69221a99e5Bc30E0cf891992e958E3Ba3815bfc6",
      "function": "approve(address,uint256)",
      "arguments": [
        "0x000000000022D473030F116dDEE9F6B43aC78BA3",
        "115792089237316195423570985008687907853269984665640564039457584007913129639935"
      ],
      "transaction": {
        "type": "0x02",
        "from": "0x5036388c540994ed7b74b82f71175a441f85bda1",
        "to": "0x69221a99e5bc30e0cf891992e958e3ba3815bfc6",
        "gas": "0x10a53",
        "value": "0x0",
        "data": "0x095ea7b3000000000000000000000000000000000022d473030f116ddee9f6b43ac78ba3ffffffffffffffffffffffffffffffffffffffffffffffffffffffffffffffff",
        "nonce": "0x333",
        "accessList": []
      },
      "additionalContracts": [],
      "isFixedGasLimit": false
    },
    {
      "hash": "0x6d740049d2c25c8bed3181078a278784503e08f9a8a60487f88a3e52faad47ac",
      "transactionType": "CALL",
      "contractName": null,
      "contractAddress": "0x000000000022D473030F116dDEE9F6B43aC78BA3",
      "function": "approve(address,address,uint160,uint48)",
      "arguments": [
        "0x66B4cF3Be49431371E4241C462B4A75ae3a6E986",
        "0xa12Da7dfD0792a10a5b05B575545Bd685798Ce35",
        "1461501637330902918203684832716283019655932542975",
        "281474976710655"
      ],
      "transaction": {
        "type": "0x02",
        "from": "0x5036388c540994ed7b74b82f71175a441f85bda1",
        "to": "0x000000000022d473030f116ddee9f6b43ac78ba3",
        "gas": "0x1112d",
        "value": "0x0",
        "data": "0x87517c4500000000000000000000000066b4cf3be49431371e4241c462b4a75ae3a6e986000000000000000000000000a12da7dfd0792a10a5b05b575545bd685798ce35000000000000000000000000ffffffffffffffffffffffffffffffffffffffff0000000000000000000000000000000000000000000000000000ffffffffffff",
        "nonce": "0x334",
        "accessList": []
      },
      "additionalContracts": [],
      "isFixedGasLimit": false
    },
    {
      "hash": "0x8443e0262e3091956722d11775a9be3d5d2a6114c87433f8200fd08a4a7613b9",
      "transactionType": "CALL",
      "contractName": null,
      "contractAddress": "0x000000000022D473030F116dDEE9F6B43aC78BA3",
      "function": "approve(address,address,uint160,uint48)",
      "arguments": [
        "0x69221a99e5Bc30E0cf891992e958E3Ba3815bfc6",
        "0xa12Da7dfD0792a10a5b05B575545Bd685798Ce35",
        "1461501637330902918203684832716283019655932542975",
        "281474976710655"
      ],
      "transaction": {
        "type": "0x02",
        "from": "0x5036388c540994ed7b74b82f71175a441f85bda1",
        "to": "0x000000000022d473030f116ddee9f6b43ac78ba3",
        "gas": "0x1112d",
        "value": "0x0",
        "data": "0x87517c4500000000000000000000000069221a99e5bc30e0cf891992e958e3ba3815bfc6000000000000000000000000a12da7dfd0792a10a5b05b575545bd685798ce35000000000000000000000000ffffffffffffffffffffffffffffffffffffffff0000000000000000000000000000000000000000000000000000ffffffffffff",
        "nonce": "0x335",
        "accessList": []
      },
      "additionalContracts": [],
      "isFixedGasLimit": false
    },
    {
      "hash": "0x8025bb8db3b051872982af89f4c0520a289eb55cc0fd3de25ba3fac3a3ebec48",
      "transactionType": "CALL",
      "contractName": null,
      "contractAddress": "0xa12Da7dfD0792a10a5b05B575545Bd685798Ce35",
      "function": "initialize(address,address[],uint256[],uint256,bool,bytes)",
      "arguments": [
        "0x2180510791a7150c74FF25c7322466BbD5fB665a",
        "[0x66B4cF3Be49431371E4241C462B4A75ae3a6E986, 0x69221a99e5Bc30E0cf891992e958E3Ba3815bfc6]",
        "[50000000000000000000, 50000000000000000000]",
        "99000000000000000000",
        "false",
        "0x"
      ],
      "transaction": {
        "type": "0x02",
        "from": "0x5036388c540994ed7b74b82f71175a441f85bda1",
        "to": "0xa12da7dfd0792a10a5b05b575545bd685798ce35",
        "gas": "0x720c9",
        "value": "0x0",
        "data": "0x026b3d950000000000000000000000002180510791a7150c74ff25c7322466bbd5fb665a00000000000000000000000000000000000000000000000000000000000000c000000000000000000000000000000000000000000000000000000000000001200000000000000000000000000000000000000000000000055de6a779bbac000000000000000000000000000000000000000000000000000000000000000000000000000000000000000000000000000000000000000000000000000000000180000000000000000000000000000000000000000000000000000000000000000200000000000000000000000066b4cf3be49431371e4241c462b4a75ae3a6e98600000000000000000000000069221a99e5bc30e0cf891992e958e3ba3815bfc60000000000000000000000000000000000000000000000000000000000000002000000000000000000000000000000000000000000000002b5e3af16b1880000000000000000000000000000000000000000000000000002b5e3af16b18800000000000000000000000000000000000000000000000000000000000000000000",
        "nonce": "0x336",
        "accessList": []
      },
      "additionalContracts": [],
      "isFixedGasLimit": false
    }
  ],
  "receipts": [
    {
      "transactionHash": "0x2c42af804e9628435664959aa1500d1f1a3674b1e401bc271d1ab2f27ffa932c",
      "transactionIndex": "0x7",
      "blockHash": "0xc31c697bde8c274b3128809fee4e90d951224d354c3b282394142c89e223f3c3",
      "blockNumber": "0x6049fd",
      "from": "0x5036388C540994Ed7b74b82F71175a441F85BdA1",
      "to": "0x579bB3a775c831526D5E94EF9ccd6601F62790Bc",
      "cumulativeGasUsed": "0x22b7b9",
      "gasUsed": "0x1d0b2c",
      "contractAddress": null,
      "logs": [
        {
          "address": "0x579bB3a775c831526D5E94EF9ccd6601F62790Bc",
          "topics": [
            "0x83a48fbcfc991335314e74d0496aab6a1987e992ddc85dddbcc4d6dd6ef2e9fc",
            "0x0000000000000000000000002180510791a7150c74ff25c7322466bbd5fb665a"
          ],
          "data": "0x",
          "blockHash": "0xc31c697bde8c274b3128809fee4e90d951224d354c3b282394142c89e223f3c3",
          "blockNumber": "0x6049fd",
          "transactionHash": "0x2c42af804e9628435664959aa1500d1f1a3674b1e401bc271d1ab2f27ffa932c",
          "transactionIndex": "0x7",
          "logIndex": "0x5",
          "removed": false
        },
        {
          "address": "0x92B5c1CB2999c45804A60d6529D77DeEF00fb839",
          "topics": [
            "0x89d41522342fabac1471ca6073a5623e5caf367b03ca6e9a001478d0cf8be4a1",
            "0x0000000000000000000000002180510791a7150c74ff25c7322466bbd5fb665a"
          ],
          "data": "0x00000000000000000000000000000000000000000000000000038d7ea4c68000",
          "blockHash": "0xc31c697bde8c274b3128809fee4e90d951224d354c3b282394142c89e223f3c3",
          "blockNumber": "0x6049fd",
          "transactionHash": "0x2c42af804e9628435664959aa1500d1f1a3674b1e401bc271d1ab2f27ffa932c",
          "transactionIndex": "0x7",
          "logIndex": "0x6",
          "removed": false
        },
        {
          "address": "0x92B5c1CB2999c45804A60d6529D77DeEF00fb839",
          "topics": [
            "0xbc1561eeab9f40962e2fb827a7ff9c7cdb47a9d7c84caeefa4ed90e043842dad",
            "0x0000000000000000000000002180510791a7150c74ff25c7322466bbd5fb665a",
            "0x000000000000000000000000579bb3a775c831526d5e94ef9ccd6601f62790bc"
          ],
          "data": "0x00000000000000000000000000000000000000000000000000000000000002a000000000000000000000000000000000000000000000000000038d7ea4c680000000000000000000000000000000000000000000000000000000000068752038000000000000000000000000000000000000000000000000000000000000000000000000000000000000000000000000000000000000000000000000000000000000000000000000000000000000000000000000000000000000000000000000000000000000000000000000000000000000000000000000000000000000000000000000000000000000000000000000000000000000000000000000000000000000000000000000000000000000000000000000000000000000000000000000000000000000000000000000000000000000000000000000000000000000000000000000000000000000000000000000000000000000000000000000000000000000000000000000000000000000000000000000000000000000000000000000000000000000000000000000000000000000000000000000000000000000000000000000000000000000000000000000000000000000000000000000000000000000000000000000000000000000000000000000000000000000000000000000000000000000000000000000000000000000000000000000000000000000000000000000000000000000000000000000000000000000000000000000000000000000000000000000000000000000000000000000000000000000000000000000000000000000000000000000000000000000000000000000000000000000000000000000000000000000000000000000000000000000000000000000000000000000000000000000000000000000000000000000000000000000000000000000000000000000000000000000000000000000000000000000000000000000000200000000000000000000000066b4cf3be49431371e4241c462b4a75ae3a6e98600000000000000000000000000000000000000000000000000000000000000000000000000000000000000000000000000000000000000000000000000000000000000000000000000000000000000000000000000000000000000000000000000000000000000000000000069221a99e5bc30e0cf891992e958e3ba3815bfc6000000000000000000000000000000000000000000000000000000000000000000000000000000000000000000000000000000000000000000000000000000000000000000000000000000000000000000000000000000000000000000000000",
          "blockHash": "0xc31c697bde8c274b3128809fee4e90d951224d354c3b282394142c89e223f3c3",
          "blockNumber": "0x6049fd",
          "transactionHash": "0x2c42af804e9628435664959aa1500d1f1a3674b1e401bc271d1ab2f27ffa932c",
          "transactionIndex": "0x7",
          "logIndex": "0x7",
          "removed": false
        }
      ],
      "status": "0x1",
      "logsBloom": "0x40000000000000000000000000000000000000000000000000000000000000000100000000020000000000000000000000000000000000000000000000000000000000000000000000000000000000000000000000000000000000000000008000000000000000000000000000000000100000000100000000000000020000001000000000000000000004000000000000000000000040000000000000000000000000002000000000000100000200000000008002000000000000000000000040800000000000000000000000000080000000000000000800000000000000000000000000000000000000000000000000020000080000000000000000000000",
      "type": "0x2",
      "effectiveGasPrice": "0x17fb9853c"
    },
    {
      "transactionHash": "0x7f2d2a9a7d809a0532982352c02895e7600cb99d5b94c159bd6b018fec88078c",
      "transactionIndex": "0x8",
      "blockHash": "0xc31c697bde8c274b3128809fee4e90d951224d354c3b282394142c89e223f3c3",
      "blockNumber": "0x6049fd",
      "from": "0x5036388C540994Ed7b74b82F71175a441F85BdA1",
      "to": "0x66B4cF3Be49431371E4241C462B4A75ae3a6E986",
      "cumulativeGasUsed": "0x236dd4",
      "gasUsed": "0xb61b",
      "contractAddress": null,
      "logs": [
        {
          "address": "0x66B4cF3Be49431371E4241C462B4A75ae3a6E986",
          "topics": [
            "0x8c5be1e5ebec7d5bd14f71427d1e84f3dd0314c0f7b2291e5b200ac8c7c3b925",
            "0x0000000000000000000000005036388c540994ed7b74b82f71175a441f85bda1",
            "0x000000000000000000000000000000000022d473030f116ddee9f6b43ac78ba3"
          ],
          "data": "0xffffffffffffffffffffffffffffffffffffffffffffffffffffffffffffffff",
          "blockHash": "0xc31c697bde8c274b3128809fee4e90d951224d354c3b282394142c89e223f3c3",
          "blockNumber": "0x6049fd",
          "transactionHash": "0x7f2d2a9a7d809a0532982352c02895e7600cb99d5b94c159bd6b018fec88078c",
          "transactionIndex": "0x8",
          "logIndex": "0x8",
          "removed": false
        }
      ],
      "status": "0x1",
      "logsBloom": "0x00000000000000000000800000000000000000000000000000000000000000000000000000000000000000000000000000000800800000000000000000200000000000000000000000004000000000000000000000000800000000000000000000000000000000000000000000002000000000000000000000000000000000000000000000000000000000000000000000000000000000000000000000000000020400000000000000000000000000000000000000000000000000000000000000000000000000000000000000000000000000000000020000000000000000000010000000000000000100000000000000000000000000000000000000000000",
      "type": "0x2",
      "effectiveGasPrice": "0x17fb9853c"
    },
    {
      "transactionHash": "0xfb3de88108924818524709ca66a492b143976d07f56f5b6b48433bc01500c352",
      "transactionIndex": "0x9",
      "blockHash": "0xc31c697bde8c274b3128809fee4e90d951224d354c3b282394142c89e223f3c3",
      "blockNumber": "0x6049fd",
      "from": "0x5036388C540994Ed7b74b82F71175a441F85BdA1",
      "to": "0x69221a99e5Bc30E0cf891992e958E3Ba3815bfc6",
      "cumulativeGasUsed": "0x2423ef",
      "gasUsed": "0xb61b",
      "contractAddress": null,
      "logs": [
        {
          "address": "0x69221a99e5Bc30E0cf891992e958E3Ba3815bfc6",
          "topics": [
            "0x8c5be1e5ebec7d5bd14f71427d1e84f3dd0314c0f7b2291e5b200ac8c7c3b925",
            "0x0000000000000000000000005036388c540994ed7b74b82f71175a441f85bda1",
            "0x000000000000000000000000000000000022d473030f116ddee9f6b43ac78ba3"
          ],
          "data": "0xffffffffffffffffffffffffffffffffffffffffffffffffffffffffffffffff",
          "blockHash": "0xc31c697bde8c274b3128809fee4e90d951224d354c3b282394142c89e223f3c3",
          "blockNumber": "0x6049fd",
          "transactionHash": "0xfb3de88108924818524709ca66a492b143976d07f56f5b6b48433bc01500c352",
          "transactionIndex": "0x9",
          "logIndex": "0x9",
          "removed": false
        }
      ],
      "status": "0x1",
      "logsBloom": "0x00000000000000000000000000000000000000000000000000000000000000000000000000000000000200000000000000000000800000000000000000200000000000000000000000004000000000000000000000000800000000000000000000000000000000000000000000002000000000000000000000000000000000000000000000000000000000000000000000000000000000000000000000000000020000000000000000000000000000000000000000000000000000000000000000000000000000000000000000000000000000000000020000000000000000000030000000000000000100000000000000000000000000000000000000000002",
      "type": "0x2",
      "effectiveGasPrice": "0x17fb9853c"
    },
    {
      "transactionHash": "0x6d740049d2c25c8bed3181078a278784503e08f9a8a60487f88a3e52faad47ac",
      "transactionIndex": "0xa",
      "blockHash": "0xc31c697bde8c274b3128809fee4e90d951224d354c3b282394142c89e223f3c3",
      "blockNumber": "0x6049fd",
      "from": "0x5036388C540994Ed7b74b82F71175a441F85BdA1",
      "to": "0x000000000022D473030F116dDEE9F6B43aC78BA3",
      "cumulativeGasUsed": "0x24deb9",
      "gasUsed": "0xbaca",
      "contractAddress": null,
      "logs": [
        {
          "address": "0x000000000022D473030F116dDEE9F6B43aC78BA3",
          "topics": [
            "0xda9fa7c1b00402c17d0161b249b1ab8bbec047c5a52207b9c112deffd817036b",
            "0x0000000000000000000000005036388c540994ed7b74b82f71175a441f85bda1",
            "0x00000000000000000000000066b4cf3be49431371e4241c462b4a75ae3a6e986",
            "0x000000000000000000000000a12da7dfd0792a10a5b05b575545bd685798ce35"
          ],
          "data": "0x000000000000000000000000ffffffffffffffffffffffffffffffffffffffff0000000000000000000000000000000000000000000000000000ffffffffffff",
          "blockHash": "0xc31c697bde8c274b3128809fee4e90d951224d354c3b282394142c89e223f3c3",
          "blockNumber": "0x6049fd",
          "transactionHash": "0x6d740049d2c25c8bed3181078a278784503e08f9a8a60487f88a3e52faad47ac",
          "transactionIndex": "0xa",
          "logIndex": "0xa",
          "removed": false
        }
      ],
      "status": "0x1",
      "logsBloom": "0x00010000000000000000000000000000000000000000000000000000000000000000000000000000000000000000000000000000000000000000000000080000000000000000000000000000000000000000000000000000001000000000000000000000000000000000004000002000000000000000000000000000000000000020000000000000000000000000000000000000000000000000000000000200000000000000000000000000000000000000000000000000000000080000000000000040000000000000000000000000000200000000020040000000000000000000000000000000000100100000000000000000000000000000000000000400",
      "type": "0x2",
      "effectiveGasPrice": "0x17fb9853c"
    },
    {
      "transactionHash": "0x8443e0262e3091956722d11775a9be3d5d2a6114c87433f8200fd08a4a7613b9",
      "transactionIndex": "0xb",
      "blockHash": "0xc31c697bde8c274b3128809fee4e90d951224d354c3b282394142c89e223f3c3",
      "blockNumber": "0x6049fd",
      "from": "0x5036388C540994Ed7b74b82F71175a441F85BdA1",
      "to": "0x000000000022D473030F116dDEE9F6B43aC78BA3",
      "cumulativeGasUsed": "0x259983",
      "gasUsed": "0xbaca",
      "contractAddress": null,
      "logs": [
        {
          "address": "0x000000000022D473030F116dDEE9F6B43aC78BA3",
          "topics": [
            "0xda9fa7c1b00402c17d0161b249b1ab8bbec047c5a52207b9c112deffd817036b",
            "0x0000000000000000000000005036388c540994ed7b74b82f71175a441f85bda1",
            "0x00000000000000000000000069221a99e5bc30e0cf891992e958e3ba3815bfc6",
            "0x000000000000000000000000a12da7dfd0792a10a5b05b575545bd685798ce35"
          ],
          "data": "0x000000000000000000000000ffffffffffffffffffffffffffffffffffffffff0000000000000000000000000000000000000000000000000000ffffffffffff",
          "blockHash": "0xc31c697bde8c274b3128809fee4e90d951224d354c3b282394142c89e223f3c3",
          "blockNumber": "0x6049fd",
          "transactionHash": "0x8443e0262e3091956722d11775a9be3d5d2a6114c87433f8200fd08a4a7613b9",
          "transactionIndex": "0xb",
          "logIndex": "0xb",
          "removed": false
        }
      ],
      "status": "0x1",
      "logsBloom": "0x00010000000000000000000000000000000000000000000000000000000000000000000000000000000000000000000000000000000000000000000000080000000000000000000000000000000000000000000000000000001000000000000000000000000000000000000000002000000000000000000000000800000000000020000000000000000000000000000000000000000000000000000000000200000000000080000000000000000000000010000000000000000000080000000000000040000000000000000000000000000000000000020040000000000000000000000000000000000100000000000000000000000000000000000000000400",
      "type": "0x2",
      "effectiveGasPrice": "0x17fb9853c"
    },
    {
      "transactionHash": "0x8025bb8db3b051872982af89f4c0520a289eb55cc0fd3de25ba3fac3a3ebec48",
      "transactionIndex": "0xc",
      "blockHash": "0xc31c697bde8c274b3128809fee4e90d951224d354c3b282394142c89e223f3c3",
      "blockNumber": "0x6049fd",
      "from": "0x5036388C540994Ed7b74b82F71175a441F85BdA1",
      "to": "0xa12Da7dfD0792a10a5b05B575545Bd685798Ce35",
      "cumulativeGasUsed": "0x2ac2a1",
      "gasUsed": "0x5291e",
      "contractAddress": null,
      "logs": [
        {
          "address": "0x92B5c1CB2999c45804A60d6529D77DeEF00fb839",
          "topics": [
            "0x0d82cd00e63fe9bc4a4369e9e774a3d415ef739752dcc31e14616d40df074be3",
            "0x0000000000000000000000002180510791a7150c74ff25c7322466bbd5fb665a",
            "0x0000000000000000000000005036388c540994ed7b74b82f71175a441f85bda1"
          ],
          "data": "0x00000000000000000000000000000000000000000000000000000000000000200000000000000000000000000000000000000000000000000000000000000002000000000000000000000000000000000000000000000002b5e3af16b1880000000000000000000000000000000000000000000000000002b5e3af16b1880000",
          "blockHash": "0xc31c697bde8c274b3128809fee4e90d951224d354c3b282394142c89e223f3c3",
          "blockNumber": "0x6049fd",
          "transactionHash": "0x8025bb8db3b051872982af89f4c0520a289eb55cc0fd3de25ba3fac3a3ebec48",
          "transactionIndex": "0xc",
          "logIndex": "0xc",
          "removed": false
        },
        {
          "address": "0x92B5c1CB2999c45804A60d6529D77DeEF00fb839",
          "topics": [
            "0xd1398bee19313d6bf672ccb116e51f4a1a947e91c757907f51fbb5b5e56c698f",
            "0x0000000000000000000000002180510791a7150c74ff25c7322466bbd5fb665a",
            "0x0000000000000000000000000000000000000000000000000000000000000000",
            "0x0000000000000000000000000000000000000000000000000000000000000000"
          ],
          "data": "0x00000000000000000000000000000000000000000000000000000000000f4240",
          "blockHash": "0xc31c697bde8c274b3128809fee4e90d951224d354c3b282394142c89e223f3c3",
          "blockNumber": "0x6049fd",
          "transactionHash": "0x8025bb8db3b051872982af89f4c0520a289eb55cc0fd3de25ba3fac3a3ebec48",
          "transactionIndex": "0xc",
          "logIndex": "0xd",
          "removed": false
        },
        {
          "address": "0x2180510791a7150c74FF25c7322466BbD5fB665a",
          "topics": [
            "0xddf252ad1be2c89b69c2b068fc378daa952ba7f163c4a11628f55a4df523b3ef",
            "0x0000000000000000000000000000000000000000000000000000000000000000",
            "0x0000000000000000000000000000000000000000000000000000000000000000"
          ],
          "data": "0x00000000000000000000000000000000000000000000000000000000000f4240",
          "blockHash": "0xc31c697bde8c274b3128809fee4e90d951224d354c3b282394142c89e223f3c3",
          "blockNumber": "0x6049fd",
          "transactionHash": "0x8025bb8db3b051872982af89f4c0520a289eb55cc0fd3de25ba3fac3a3ebec48",
          "transactionIndex": "0xc",
          "logIndex": "0xe",
          "removed": false
        },
        {
          "address": "0x92B5c1CB2999c45804A60d6529D77DeEF00fb839",
          "topics": [
            "0xd1398bee19313d6bf672ccb116e51f4a1a947e91c757907f51fbb5b5e56c698f",
            "0x0000000000000000000000002180510791a7150c74ff25c7322466bbd5fb665a",
            "0x0000000000000000000000000000000000000000000000000000000000000000",
            "0x0000000000000000000000005036388c540994ed7b74b82f71175a441f85bda1"
          ],
          "data": "0x0000000000000000000000000000000000000000000000056bc75e2d6300bdc0",
          "blockHash": "0xc31c697bde8c274b3128809fee4e90d951224d354c3b282394142c89e223f3c3",
          "blockNumber": "0x6049fd",
          "transactionHash": "0x8025bb8db3b051872982af89f4c0520a289eb55cc0fd3de25ba3fac3a3ebec48",
          "transactionIndex": "0xc",
          "logIndex": "0xf",
          "removed": false
        },
        {
          "address": "0x2180510791a7150c74FF25c7322466BbD5fB665a",
          "topics": [
            "0xddf252ad1be2c89b69c2b068fc378daa952ba7f163c4a11628f55a4df523b3ef",
            "0x0000000000000000000000000000000000000000000000000000000000000000",
            "0x0000000000000000000000005036388c540994ed7b74b82f71175a441f85bda1"
          ],
          "data": "0x0000000000000000000000000000000000000000000000056bc75e2d6300bdc0",
          "blockHash": "0xc31c697bde8c274b3128809fee4e90d951224d354c3b282394142c89e223f3c3",
          "blockNumber": "0x6049fd",
          "transactionHash": "0x8025bb8db3b051872982af89f4c0520a289eb55cc0fd3de25ba3fac3a3ebec48",
          "transactionIndex": "0xc",
          "logIndex": "0x10",
          "removed": false
        },
        {
          "address": "0x92B5c1CB2999c45804A60d6529D77DeEF00fb839",
          "topics": [
            "0xcad8c9d32507393b6508ca4a888b81979919b477510585bde8488f153072d6f3",
            "0x0000000000000000000000002180510791a7150c74ff25c7322466bbd5fb665a"
          ],
          "data": "0x",
          "blockHash": "0xc31c697bde8c274b3128809fee4e90d951224d354c3b282394142c89e223f3c3",
          "blockNumber": "0x6049fd",
          "transactionHash": "0x8025bb8db3b051872982af89f4c0520a289eb55cc0fd3de25ba3fac3a3ebec48",
          "transactionIndex": "0xc",
          "logIndex": "0x11",
          "removed": false
        },
        {
          "address": "0x66B4cF3Be49431371E4241C462B4A75ae3a6E986",
          "topics": [
            "0xddf252ad1be2c89b69c2b068fc378daa952ba7f163c4a11628f55a4df523b3ef",
            "0x0000000000000000000000005036388c540994ed7b74b82f71175a441f85bda1",
            "0x00000000000000000000000092b5c1cb2999c45804a60d6529d77deef00fb839"
          ],
          "data": "0x000000000000000000000000000000000000000000000002b5e3af16b1880000",
          "blockHash": "0xc31c697bde8c274b3128809fee4e90d951224d354c3b282394142c89e223f3c3",
          "blockNumber": "0x6049fd",
          "transactionHash": "0x8025bb8db3b051872982af89f4c0520a289eb55cc0fd3de25ba3fac3a3ebec48",
          "transactionIndex": "0xc",
          "logIndex": "0x12",
          "removed": false
        },
        {
          "address": "0x69221a99e5Bc30E0cf891992e958E3Ba3815bfc6",
          "topics": [
            "0xddf252ad1be2c89b69c2b068fc378daa952ba7f163c4a11628f55a4df523b3ef",
            "0x0000000000000000000000005036388c540994ed7b74b82f71175a441f85bda1",
            "0x00000000000000000000000092b5c1cb2999c45804a60d6529d77deef00fb839"
          ],
          "data": "0x000000000000000000000000000000000000000000000002b5e3af16b1880000",
          "blockHash": "0xc31c697bde8c274b3128809fee4e90d951224d354c3b282394142c89e223f3c3",
          "blockNumber": "0x6049fd",
          "transactionHash": "0x8025bb8db3b051872982af89f4c0520a289eb55cc0fd3de25ba3fac3a3ebec48",
          "transactionIndex": "0xc",
          "logIndex": "0x13",
          "removed": false
        }
      ],
      "status": "0x1",
      "logsBloom": "0x00000000000000000040800000000000000000000000000000000000000000000100000000000000000200000000000000000800000000000000000000000000000000000100000000000008000000000000000000000000000000000000008000000000020000000000000000022800000000000000000000000010002000001000000000000400000014000000000000000000000000000000010000000000000400c02000000002000000000200000000000000000000000000000000000000000006000000000000000000000000000400000000020000000000800020000020000000000000000100000110000000000000000000000000000000000002",
      "type": "0x2",
      "effectiveGasPrice": "0x17fb9853c"
    }
  ],
  "libraries": [],
  "pending": [],
  "returns": {},
  "timestamp": 1720982032,
  "chain": 11155111,
  "commit": "af5dfd6"
}