{
  "transactions": [
    {
      "hash": "0xdbb84d6634d9a15f4026affde99d57bdf292f590d107ccf4696880a1c088e586",
      "transactionType": "CALL",
      "contractName": null,
      "contractAddress": "0x3626DEff4AFB3Acd8f217288cd33FBE3a337Ce0B",
      "function": "create(string,string,bytes32,(address,uint8,address,bool)[],uint256,bool,(address,address,address),address,(bool,bool,bool,bool))",
      "arguments": [
        "\"Constant Product Pool\"",
        "\"CP-50scUSD-50scDAI\"",
        "0xdd17b4905a04fdbc4855cfb7921be8e7e972b4fae92c222c3de43421923764c9",
        "[(0x66B4cF3Be49431371E4241C462B4A75ae3a6E986, 0, 0x0000000000000000000000000000000000000000, false), (0x69221a99e5Bc30E0cf891992e958E3Ba3815bfc6, 0, 0x0000000000000000000000000000000000000000, false)]",
        "1000000000000000",
        "false",
        "(0x0000000000000000000000000000000000000000, 0x0000000000000000000000000000000000000000, 0x0000000000000000000000000000000000000000)",
        "0xB93eD7BbBFfcedfA8125f0653Bc07E7D229ffE21",
        "(false, false, false, false)"
      ],
      "transaction": {
        "type": "0x02",
        "from": "0x5036388c540994ed7b74b82f71175a441f85bda1",
        "to": "0x3626deff4afb3acd8f217288cd33fbe3a337ce0b",
        "gas": "0x2c0b9b",
        "value": "0x0",
        "data": "0x69b9322400000000000000000000000000000000000000000000000000000000000001c00000000000000000000000000000000000000000000000000000000000000200dd17b4905a04fdbc4855cfb7921be8e7e972b4fae92c222c3de43421923764c9000000000000000000000000000000000000000000000000000000000000024000000000000000000000000000000000000000000000000000038d7ea4c680000000000000000000000000000000000000000000000000000000000000000000000000000000000000000000000000000000000000000000000000000000000000000000000000000000000000000000000000000000000000000000000000000000000000000000000000000000000000000000000000000000000000000000000000000000000000000000b93ed7bbbffcedfa8125f0653bc07e7d229ffe2100000000000000000000000000000000000000000000000000000000000000000000000000000000000000000000000000000000000000000000000000000000000000000000000000000000000000000000000000000000000000000000000000000000000000000000000000000000000000000000000000000000000000000000000000000000000000000000000000000000000000000000000000000015436f6e7374616e742050726f6475637420506f6f6c0000000000000000000000000000000000000000000000000000000000000000000000000000000000001243502d353073635553442d353073634441490000000000000000000000000000000000000000000000000000000000000000000000000000000000000000000200000000000000000000000066b4cf3be49431371e4241c462b4a75ae3a6e98600000000000000000000000000000000000000000000000000000000000000000000000000000000000000000000000000000000000000000000000000000000000000000000000000000000000000000000000000000000000000000000000000000000000000000000000069221a99e5bc30e0cf891992e958e3ba3815bfc6000000000000000000000000000000000000000000000000000000000000000000000000000000000000000000000000000000000000000000000000000000000000000000000000000000000000000000000000000000000000000000000000",
        "nonce": "0x337",
        "accessList": []
      },
      "additionalContracts": [
        {
          "transactionType": "CREATE2",
          "address": "0x9d4e1e686D481F4Cd2485b05D228b9e98bb24fFf",
          "initCode": "0x67363d3d37363d34f03d5260086018f3"
        },
        {
          "transactionType": "CREATE",
          "address": "0x1208016B76c5Ac42d606D2dA885A7f04d38FC08d",
          "initCode": "0x61018060405234801562000011575f80fd5b5060405162001cc938038062001cc983398101604081905262000034916200028f565b8282828282604051806040016040528060018152602001603160f81b815250620000685f836200014660201b90919060201c565b610120526200007981600162000146565b61014052815160208084019190912060e052815190820120610100524660a0526200010660e05161010051604080517f8b73c3c69bb8fe3d512ecc4cf759cc79239f7b179b0ffacaa9a75d522b39400f60208201529081019290925260608201524660808201523060a08201525f9060c00160405160208183030381529060405280519060200120905090565b60805250503060c0526001600160a01b03166101605260036200012a83826200039d565b5060046200013982826200039d565b50505050505050620004c1565b5f60208351101562000165576200015d836200017e565b905062000178565b816200017284826200039d565b5060ff90505b92915050565b5f80829050601f81511115620001b4578260405163305a27a960e01b8152600401620001ab919062000469565b60405180910390fd5b8051620001c1826200049d565b179392505050565b634e487b7160e01b5f52604160045260245ffd5b5f5b83811015620001f9578181015183820152602001620001df565b50505f910152565b5f82601f83011262000211575f80fd5b81516001600160401b03808211156200022e576200022e620001c9565b604051601f8301601f19908116603f01168101908282118183101715620002595762000259620001c9565b8160405283815286602085880101111562000272575f80fd5b62000285846020830160208901620001dd565b9695505050505050565b5f805f60608486031215620002a2575f80fd5b83516001600160a01b0381168114620002b9575f80fd5b60208501519093506001600160401b0380821115620002d6575f80fd5b620002e48783880162000201565b93506040860151915080821115620002fa575f80fd5b50620003098682870162000201565b9150509250925092565b600181811c908216806200032857607f821691505b6020821081036200034757634e487b7160e01b5f52602260045260245ffd5b50919050565b601f8211156200039857805f5260205f20601f840160051c81016020851015620003745750805b601f840160051c820191505b8181101562000395575f815560010162000380565b50505b505050565b81516001600160401b03811115620003b957620003b9620001c9565b620003d181620003ca845462000313565b846200034d565b602080601f83116001811462000407575f8415620003ef5750858301515b5f19600386901b1c1916600185901b17855562000461565b5f85815260208120601f198616915b82811015620004375788860151825594840194600190910190840162000416565b50858210156200045557878501515f19600388901b60f8161c191681555b505060018460011b0185555b505050505050565b602081525f825180602084015262000489816040850160208701620001dd565b601f01601f19169190910160400192915050565b8051602080830151919081101562000347575f1960209190910360031b1b16919050565b60805160a05160c05160e0516101005161012051610140516101605161176d6200055c5f395f81816102e40152818161041301528181610509015281816105b6015281816106fc015281816107520152818161093401528181610ab701528181610b5d0152610c0201525f610e8401525f610e5801525f610d1d01525f610cf501525f610c5001525f610c7a01525f610ca4015261176d5ff3fe608060405234801561000f575f80fd5b5060043610610153575f3560e01c8063679aefce116100bf5780638d928af8116100795780638d928af8146102d757806395d89b411461030e578063a9059cbb14610316578063ce20ece714610329578063d505accf1461032f578063dd62ed3e14610342575f80fd5b8063679aefce1461026857806370a082311461027057806372c98186146102835780637ecebe001461029657806380de451d146102a957806384b0196e146102bc575f80fd5b806323de66511161011057806323de6651146101f457806330adf81f14610209578063313ce567146102305780633644e5151461023f5780635687f2b814610247578063654cf15d1461025a575f80fd5b806301ffc9a71461015757806306fdde0314610190578063095ea7b3146101a557806316a0b3e0146101b857806318160ddd146101d957806323b872dd146101e1575b5f80fd5b61017b61016536600461123b565b6001600160e01b0319166301ffc9a760e01b1490565b60405190151581526020015b60405180910390f35b610198610355565b60405161018791906112a5565b61017b6101b33660046112d2565b6103e5565b6101cb6101c63660046113a9565b61048c565b604051908152602001610187565b6101cb6104f2565b61017b6101ef3660046113f3565b610580565b6102076102023660046113f3565b61062d565b005b6101cb7f6e71edae12b1b97f4d1f60370fef10105fa2faae0126114a169c64845d6126c981565b60405160128152602001610187565b6101cb610687565b6102076102553660046113f3565b610690565b67016345785d8a00006101cb565b6101cb6106dd565b6101cb61027e36600461142c565b61072b565b6101cb610291366004611445565b6107bd565b6101cb6102a436600461142c565b610836565b6101cb6102b736600461147c565b610853565b6102c46108b5565b60405161018797969594939291906114ae565b6040516001600160a01b037f0000000000000000000000000000000000000000000000000000000000000000168152602001610187565b6101986108f7565b61017b6103243660046112d2565b610906565b5f6101cb565b61020761033d366004611545565b610965565b6101cb6103503660046115b2565b610b2e565b606060038054610364906115e3565b80601f0160208091040260200160405190810160405280929190818152602001828054610390906115e3565b80156103db5780601f106103b2576101008083540402835291602001916103db565b820191905f5260205f20905b8154815290600101906020018083116103be57829003601f168201915b5050505050905090565b60405163e1f21c6760e01b81523360048201526001600160a01b038381166024830152604482018390525f917f00000000000000000000000000000000000000000000000000000000000000009091169063e1f21c67906064015b6020604051808303815f875af115801561045c573d5f803e3d5ffd5b505050506040513d601f19601f82011682018060405250810190610480919061161b565b50600190505b92915050565b5f80831561049a575f61049d565b60015b60ff1690505f6104b6846104b088610853565b90610bcf565b90508582815181106104ca576104ca61163a565b602002602001015181826104de9190611662565b6104e8919061168d565b9695505050505050565b6040516339370aa960e21b81523060048201525f907f00000000000000000000000000000000000000000000000000000000000000006001600160a01b03169063e4dc2aa4906024015b602060405180830381865afa158015610557573d5f803e3d5ffd5b505050506040513d601f19601f8201168201806040525081019061057b91906116ac565b905090565b604051630aed65f560e11b81523360048201526001600160a01b0384811660248301528381166044830152606482018390525f917f0000000000000000000000000000000000000000000000000000000000000000909116906315dacbea906084016020604051808303815f875af11580156105fe573d5f803e3d5ffd5b505050506040513d601f19601f82011682018060405250810190610622919061161b565b506001949350505050565b610635610bf7565b816001600160a01b0316836001600160a01b03167fddf252ad1be2c89b69c2b068fc378daa952ba7f163c4a11628f55a4df523b3ef8360405161067a91815260200190565b60405180910390a3505050565b5f61057b610c44565b610698610bf7565b816001600160a01b0316836001600160a01b03167f8c5be1e5ebec7d5bd14f71427d1e84f3dd0314c0f7b2291e5b200ac8c7c3b9258360405161067a91815260200190565b604051634f037ee760e01b81523060048201525f906001600160a01b037f00000000000000000000000000000000000000000000000000000000000000001690634f037ee79060240161053c565b604051633de222bb60e21b81523060048201526001600160a01b0382811660248301525f917f00000000000000000000000000000000000000000000000000000000000000009091169063f7888aec90604401602060405180830381865afa158015610799573d5f803e3d5ffd5b505050506040513d601f19601f8201168201806040525081019061048691906116ac565b5f60208201356107d060408401846116c3565b84606001358181106107e4576107e461163a565b905060200201356107f59190611710565b602083013561080760408501856116c3565b856080013581811061081b5761081b61163a565b9050602002013561082c9190611662565b610486919061168d565b6001600160a01b0381165f90815260026020526040812054610486565b670de0b6b3a76400005f5b825181101561089d5761089383828151811061087c5761087c61163a565b602002602001015183610bcf90919063ffffffff16565b915060010161085e565b506108a781610d6d565b61048690633b9aca00611662565b5f6060805f805f60606108c6610e51565b6108ce610e7d565b604080515f80825260208201909252600f60f81b9b939a50919850469750309650945092509050565b606060048054610364906115e3565b6040516317d5759960e31b81523360048201526001600160a01b038381166024830152604482018390525f917f00000000000000000000000000000000000000000000000000000000000000009091169063beabacc890606401610440565b8342111561098e5760405163313c898160e11b8152600481018590526024015b60405180910390fd5b5f7f6e71edae12b1b97f4d1f60370fef10105fa2faae0126114a169c64845d6126c98888886109d98c6001600160a01b03165f90815260026020526040902080546001810190915590565b6040805160208101969096526001600160a01b0394851690860152929091166060840152608083015260a082015260c0810186905260e0016040516020818303038152906040528051906020012090505f610a3382610eaa565b90505f610a4282878787610ed6565b9050896001600160a01b0316816001600160a01b031614610a89576040516325c0072360e11b81526001600160a01b0380831660048301528b166024820152604401610985565b60405163e1f21c6760e01b81526001600160a01b038b811660048301528a81166024830152604482018a90527f0000000000000000000000000000000000000000000000000000000000000000169063e1f21c67906064016020604051808303815f875af1158015610afd573d5f803e3d5ffd5b505050506040513d601f19601f82011682018060405250810190610b21919061161b565b5050505050505050505050565b60405163927da10560e01b81523060048201526001600160a01b03838116602483015282811660448301525f917f00000000000000000000000000000000000000000000000000000000000000009091169063927da10590606401602060405180830381865afa158015610ba4573d5f803e3d5ffd5b505050506040513d601f19601f82011682018060405250810190610bc891906116ac565b9392505050565b5f80610bdb8385611662565b9050610bef670de0b6b3a76400008261168d565b949350505050565b336001600160a01b037f00000000000000000000000000000000000000000000000000000000000000001614610c425760405163089676d560e01b8152336004820152602401610985565b565b5f306001600160a01b037f000000000000000000000000000000000000000000000000000000000000000016148015610c9c57507f000000000000000000000000000000000000000000000000000000000000000046145b15610cc657507f000000000000000000000000000000000000000000000000000000000000000090565b61057b604080517f8b73c3c69bb8fe3d512ecc4cf759cc79239f7b179b0ffacaa9a75d522b39400f60208201527f0000000000000000000000000000000000000000000000000000000000000000918101919091527f000000000000000000000000000000000000000000000000000000000000000060608201524660808201523060a08201525f9060c00160405160208183030381529060405280519060200120905090565b5f815f03610d7c57505f919050565b5f6001610d8884610f02565b901c6001901b90506001818481610da157610da1611679565b048201901c90506001818481610db957610db9611679565b048201901c90506001818481610dd157610dd1611679565b048201901c90506001818481610de957610de9611679565b048201901c90506001818481610e0157610e01611679565b048201901c90506001818481610e1957610e19611679565b048201901c90506001818481610e3157610e31611679565b048201901c9050610bc881828581610e4b57610e4b611679565b04610f95565b606061057b7f00000000000000000000000000000000000000000000000000000000000000005f610faa565b606061057b7f00000000000000000000000000000000000000000000000000000000000000006001610faa565b5f610486610eb6610c44565b8360405161190160f01b8152600281019290925260228201526042902090565b5f805f80610ee688888888611053565b925092509250610ef6828261111b565b50909695505050505050565b5f80608083901c15610f1657608092831c92015b604083901c15610f2857604092831c92015b602083901c15610f3a57602092831c92015b601083901c15610f4c57601092831c92015b600883901c15610f5e57600892831c92015b600483901c15610f7057600492831c92015b600283901c15610f8257600292831c92015b600183901c156104865760010192915050565b5f818310610fa35781610bc8565b5090919050565b606060ff8314610fc457610fbd836111d7565b9050610486565b818054610fd0906115e3565b80601f0160208091040260200160405190810160405280929190818152602001828054610ffc906115e3565b80156110475780601f1061101e57610100808354040283529160200191611047565b820191905f5260205f20905b81548152906001019060200180831161102a57829003601f168201915b50505050509050610486565b5f80807f7fffffffffffffffffffffffffffffff5d576e7357a4501ddfe92f46681b20a084111561108c57505f91506003905082611111565b604080515f808252602082018084528a905260ff891692820192909252606081018790526080810186905260019060a0016020604051602081039080840390855afa1580156110dd573d5f803e3d5ffd5b5050604051601f1901519150506001600160a01b03811661110857505f925060019150829050611111565b92505f91508190505b9450945094915050565b5f82600381111561112e5761112e611723565b03611137575050565b600182600381111561114b5761114b611723565b036111695760405163f645eedf60e01b815260040160405180910390fd5b600282600381111561117d5761117d611723565b0361119e5760405163fce698f760e01b815260048101829052602401610985565b60038260038111156111b2576111b2611723565b036111d3576040516335e2f38360e21b815260048101829052602401610985565b5050565b60605f6111e383611214565b6040805160208082528183019092529192505f91906020820181803683375050509182525060208101929092525090565b5f60ff8216601f81111561048657604051632cd44ac360e21b815260040160405180910390fd5b5f6020828403121561124b575f80fd5b81356001600160e01b031981168114610bc8575f80fd5b5f81518084525f5b818110156112865760208185018101518683018201520161126a565b505f602082860101526020601f19601f83011685010191505092915050565b602081525f610bc86020830184611262565b80356001600160a01b03811681146112cd575f80fd5b919050565b5f80604083850312156112e3575f80fd5b6112ec836112b7565b946020939093013593505050565b634e487b7160e01b5f52604160045260245ffd5b5f82601f83011261131d575f80fd5b8135602067ffffffffffffffff8083111561133a5761133a6112fa565b8260051b604051601f19603f8301168101818110848211171561135f5761135f6112fa565b604052938452602081870181019490810192508785111561137e575f80fd5b6020870191505b8482101561139e57813583529183019190830190611385565b979650505050505050565b5f805f606084860312156113bb575f80fd5b833567ffffffffffffffff8111156113d1575f80fd5b6113dd8682870161130e565b9660208601359650604090950135949350505050565b5f805f60608486031215611405575f80fd5b61140e846112b7565b925061141c602085016112b7565b9150604084013590509250925092565b5f6020828403121561143c575f80fd5b610bc8826112b7565b5f60208284031215611455575f80fd5b813567ffffffffffffffff81111561146b575f80fd5b820160e08185031215610bc8575f80fd5b5f6020828403121561148c575f80fd5b813567ffffffffffffffff8111156114a2575f80fd5b610bef8482850161130e565b60ff60f81b881681525f602060e060208401526114ce60e084018a611262565b83810360408501526114e0818a611262565b606085018990526001600160a01b038816608086015260a0850187905284810360c0860152855180825260208088019350909101905f5b8181101561153357835183529284019291840191600101611517565b50909c9b505050505050505050505050565b5f805f805f805f60e0888a03121561155b575f80fd5b611564886112b7565b9650611572602089016112b7565b95506040880135945060608801359350608088013560ff81168114611595575f80fd5b9699959850939692959460a0840135945060c09093013592915050565b5f80604083850312156115c3575f80fd5b6115cc836112b7565b91506115da602084016112b7565b90509250929050565b600181811c908216806115f757607f821691505b60208210810361161557634e487b7160e01b5f52602260045260245ffd5b50919050565b5f6020828403121561162b575f80fd5b81518015158114610bc8575f80fd5b634e487b7160e01b5f52603260045260245ffd5b634e487b7160e01b5f52601160045260245ffd5b80820281158282048414176104865761048661164e565b634e487b7160e01b5f52601260045260245ffd5b5f826116a757634e487b7160e01b5f52601260045260245ffd5b500490565b5f602082840312156116bc575f80fd5b5051919050565b5f808335601e198436030181126116d8575f80fd5b83018035915067ffffffffffffffff8211156116f2575f80fd5b6020019150600581901b3603821315611709575f80fd5b9250929050565b808201808211156104865761048661164e565b634e487b7160e01b5f52602160045260245ffdfea2646970667358221220a34375fadef97fca09e290505b623dde2db14c1a6604938f8c68b7baec80f15f64736f6c6343000818003300000000000000000000000092b5c1cb2999c45804a60d6529d77deef00fb839000000000000000000000000000000000000000000000000000000000000006000000000000000000000000000000000000000000000000000000000000000a00000000000000000000000000000000000000000000000000000000000000015436f6e7374616e742050726f6475637420506f6f6c0000000000000000000000000000000000000000000000000000000000000000000000000000000000001243502d353073635553442d353073634441490000000000000000000000000000"
        }
      ],
      "isFixedGasLimit": false
    },
    {
      "hash": "0x836c828766ced76d2f532c0c341fad48396207083780e0b5200847a3edd20f05",
      "transactionType": "CALL",
      "contractName": "MockToken2",
      "contractAddress": "0x66B4cF3Be49431371E4241C462B4A75ae3a6E986",
      "function": "approve(address,uint256)",
      "arguments": [
        "0x000000000022D473030F116dDEE9F6B43aC78BA3",
        "115792089237316195423570985008687907853269984665640564039457584007913129639935"
      ],
      "transaction": {
        "type": "0x02",
        "from": "0x5036388c540994ed7b74b82f71175a441f85bda1",
        "to": "0x66b4cf3be49431371e4241c462b4a75ae3a6e986",
        "gas": "0x9028",
        "value": "0x0",
        "data": "0x095ea7b3000000000000000000000000000000000022d473030f116ddee9f6b43ac78ba3ffffffffffffffffffffffffffffffffffffffffffffffffffffffffffffffff",
        "nonce": "0x338",
        "accessList": []
      },
      "additionalContracts": [],
      "isFixedGasLimit": false
    },
    {
      "hash": "0x495890f56f363d04a5026f09812607f08e61f9654c48e277a0915c920b31f7ee",
      "transactionType": "CALL",
      "contractName": "MockToken1",
      "contractAddress": "0x69221a99e5Bc30E0cf891992e958E3Ba3815bfc6",
      "function": "approve(address,uint256)",
      "arguments": [
        "0x000000000022D473030F116dDEE9F6B43aC78BA3",
        "115792089237316195423570985008687907853269984665640564039457584007913129639935"
      ],
      "transaction": {
        "type": "0x02",
        "from": "0x5036388c540994ed7b74b82f71175a441f85bda1",
        "to": "0x69221a99e5bc30e0cf891992e958e3ba3815bfc6",
        "gas": "0x9028",
        "value": "0x0",
        "data": "0x095ea7b3000000000000000000000000000000000022d473030f116ddee9f6b43ac78ba3ffffffffffffffffffffffffffffffffffffffffffffffffffffffffffffffff",
        "nonce": "0x339",
        "accessList": []
      },
      "additionalContracts": [],
      "isFixedGasLimit": false
    },
    {
      "hash": "0x10c9473569dfd7a2b958d606d774f8e2fe37a1426f8d5ff2eed6bcdec580844f",
      "transactionType": "CALL",
      "contractName": null,
      "contractAddress": "0x000000000022D473030F116dDEE9F6B43aC78BA3",
      "function": "approve(address,address,uint160,uint48)",
      "arguments": [
        "0x66B4cF3Be49431371E4241C462B4A75ae3a6E986",
        "0xa12Da7dfD0792a10a5b05B575545Bd685798Ce35",
        "1461501637330902918203684832716283019655932542975",
        "281474976710655"
      ],
      "transaction": {
        "type": "0x02",
        "from": "0x5036388c540994ed7b74b82f71175a441f85bda1",
        "to": "0x000000000022d473030f116ddee9f6b43ac78ba3",
        "gas": "0x96a0",
        "value": "0x0",
        "data": "0x87517c4500000000000000000000000066b4cf3be49431371e4241c462b4a75ae3a6e986000000000000000000000000a12da7dfd0792a10a5b05b575545bd685798ce35000000000000000000000000ffffffffffffffffffffffffffffffffffffffff0000000000000000000000000000000000000000000000000000ffffffffffff",
        "nonce": "0x33a",
        "accessList": []
      },
      "additionalContracts": [],
      "isFixedGasLimit": false
    },
    {
      "hash": "0x5c8461e368cf709eaa19ae604ad70266de774ef59f2565240480b668b65fbd9b",
      "transactionType": "CALL",
      "contractName": null,
      "contractAddress": "0x000000000022D473030F116dDEE9F6B43aC78BA3",
      "function": "approve(address,address,uint160,uint48)",
      "arguments": [
        "0x69221a99e5Bc30E0cf891992e958E3Ba3815bfc6",
        "0xa12Da7dfD0792a10a5b05B575545Bd685798Ce35",
        "1461501637330902918203684832716283019655932542975",
        "281474976710655"
      ],
      "transaction": {
        "type": "0x02",
        "from": "0x5036388c540994ed7b74b82f71175a441f85bda1",
        "to": "0x000000000022d473030f116ddee9f6b43ac78ba3",
        "gas": "0x96a0",
        "value": "0x0",
        "data": "0x87517c4500000000000000000000000069221a99e5bc30e0cf891992e958e3ba3815bfc6000000000000000000000000a12da7dfd0792a10a5b05b575545bd685798ce35000000000000000000000000ffffffffffffffffffffffffffffffffffffffff0000000000000000000000000000000000000000000000000000ffffffffffff",
        "nonce": "0x33b",
        "accessList": []
      },
      "additionalContracts": [],
      "isFixedGasLimit": false
    },
    {
      "hash": "0xcaadea9cf064079d9090d44688ff1b058837b9b05df17c462306e2a49762572d",
      "transactionType": "CALL",
      "contractName": null,
      "contractAddress": "0xa12Da7dfD0792a10a5b05B575545Bd685798Ce35",
      "function": "initialize(address,address[],uint256[],uint256,bool,bytes)",
      "arguments": [
        "0x1208016B76c5Ac42d606D2dA885A7f04d38FC08d",
        "[0x66B4cF3Be49431371E4241C462B4A75ae3a6E986, 0x69221a99e5Bc30E0cf891992e958E3Ba3815bfc6]",
        "[50000000000000000000, 50000000000000000000]",
        "49000000000000000000",
        "false",
        "0x"
      ],
      "transaction": {
        "type": "0x02",
        "from": "0x5036388c540994ed7b74b82f71175a441f85bda1",
        "to": "0xa12da7dfd0792a10a5b05b575545bd685798ce35",
        "gas": "0x5b78e",
        "value": "0x0",
        "data": "0x026b3d950000000000000000000000001208016b76c5ac42d606d2da885a7f04d38fc08d00000000000000000000000000000000000000000000000000000000000000c00000000000000000000000000000000000000000000000000000000000000120000000000000000000000000000000000000000000000002a802f8630a24000000000000000000000000000000000000000000000000000000000000000000000000000000000000000000000000000000000000000000000000000000000180000000000000000000000000000000000000000000000000000000000000000200000000000000000000000066b4cf3be49431371e4241c462b4a75ae3a6e98600000000000000000000000069221a99e5bc30e0cf891992e958e3ba3815bfc60000000000000000000000000000000000000000000000000000000000000002000000000000000000000000000000000000000000000002b5e3af16b1880000000000000000000000000000000000000000000000000002b5e3af16b18800000000000000000000000000000000000000000000000000000000000000000000",
        "nonce": "0x33c",
        "accessList": []
      },
      "additionalContracts": [],
      "isFixedGasLimit": false
    }
  ],
  "receipts": [
    {
      "transactionHash": "0xdbb84d6634d9a15f4026affde99d57bdf292f590d107ccf4696880a1c088e586",
      "transactionIndex": "0xa",
      "blockHash": "0xe4756efda8e645e7531e80ada4a31b7a40ce45879b89b1d8c952c93689b68c53",
      "blockNumber": "0x604a08",
      "from": "0x5036388C540994Ed7b74b82F71175a441F85BdA1",
      "to": "0x3626DEff4AFB3Acd8f217288cd33FBE3a337Ce0B",
      "cumulativeGasUsed": "0x35ff81",
      "gasUsed": "0x1fe356",
      "contractAddress": null,
      "logs": [
        {
          "address": "0x3626DEff4AFB3Acd8f217288cd33FBE3a337Ce0B",
          "topics": [
            "0x83a48fbcfc991335314e74d0496aab6a1987e992ddc85dddbcc4d6dd6ef2e9fc",
            "0x0000000000000000000000001208016b76c5ac42d606d2da885a7f04d38fc08d"
          ],
          "data": "0x",
          "blockHash": "0xe4756efda8e645e7531e80ada4a31b7a40ce45879b89b1d8c952c93689b68c53",
          "blockNumber": "0x604a08",
          "transactionHash": "0xdbb84d6634d9a15f4026affde99d57bdf292f590d107ccf4696880a1c088e586",
          "transactionIndex": "0xa",
          "logIndex": "0x18",
          "removed": false
        },
        {
          "address": "0x92B5c1CB2999c45804A60d6529D77DeEF00fb839",
          "topics": [
            "0x89d41522342fabac1471ca6073a5623e5caf367b03ca6e9a001478d0cf8be4a1",
            "0x0000000000000000000000001208016b76c5ac42d606d2da885a7f04d38fc08d"
          ],
          "data": "0x00000000000000000000000000000000000000000000000000038d7ea4c68000",
          "blockHash": "0xe4756efda8e645e7531e80ada4a31b7a40ce45879b89b1d8c952c93689b68c53",
          "blockNumber": "0x604a08",
          "transactionHash": "0xdbb84d6634d9a15f4026affde99d57bdf292f590d107ccf4696880a1c088e586",
          "transactionIndex": "0xa",
          "logIndex": "0x19",
          "removed": false
        },
        {
          "address": "0x92B5c1CB2999c45804A60d6529D77DeEF00fb839",
          "topics": [
            "0xbc1561eeab9f40962e2fb827a7ff9c7cdb47a9d7c84caeefa4ed90e043842dad",
            "0x0000000000000000000000001208016b76c5ac42d606d2da885a7f04d38fc08d",
            "0x0000000000000000000000003626deff4afb3acd8f217288cd33fbe3a337ce0b"
          ],
          "data": "0x00000000000000000000000000000000000000000000000000000000000002a000000000000000000000000000000000000000000000000000038d7ea4c6800000000000000000000000000000000000000000000000000000000000687520f80000000000000000000000000000000000000000000000000000000000000000000000000000000000000000000000000000000000000000000000000000000000000000000000000000000000000000000000000000000000000000000000000000000000000000000000000000000000000000000000000000000000000000000000000000000000000000000000000000000000000000000000000000000000000000000000000000000000000000000000000000000000000000000000000000000000000000000000000000000000000000000000000000000000000001000000000000000000000000000000000000000000000000000000000000000000000000000000000000000000000000000000000000000000000000000000000000000000000000000000000000000000000000000000000000000000000000000000000000000000000000000000000000000000000000000000000000000000000000000000000000000000000000000000000000000000000000000000000000000000000000000000000000000000000000000000000000000000000000000000000000000000000000b93ed7bbbffcedfa8125f0653bc07e7d229ffe210000000000000000000000000000000000000000000000000000000000000000000000000000000000000000000000000000000000000000000000000000000000000000000000000000000000000000000000000000000000000000000000000000000000000000000000000000000000000000000000000000000000000000000000000000000000000000000000000000000000000000000000000000000200000000000000000000000066b4cf3be49431371e4241c462b4a75ae3a6e98600000000000000000000000000000000000000000000000000000000000000000000000000000000000000000000000000000000000000000000000000000000000000000000000000000000000000000000000000000000000000000000000000000000000000000000000069221a99e5bc30e0cf891992e958e3ba3815bfc6000000000000000000000000000000000000000000000000000000000000000000000000000000000000000000000000000000000000000000000000000000000000000000000000000000000000000000000000000000000000000000000000",
          "blockHash": "0xe4756efda8e645e7531e80ada4a31b7a40ce45879b89b1d8c952c93689b68c53",
          "blockNumber": "0x604a08",
          "transactionHash": "0xdbb84d6634d9a15f4026affde99d57bdf292f590d107ccf4696880a1c088e586",
          "transactionIndex": "0xa",
          "logIndex": "0x1a",
          "removed": false
        }
      ],
      "status": "0x1",
      "logsBloom": "0x40000000000002000000000000000004000000000000000000000000000000000000000000000000000000000000000000000000008000001000000000000000000000000000000000000000000000000000000000020000000000000000000000000000000000000000000000000000000000000100000000000000020000001000008400000000020004000000000000000000000040000000000000000000000000002000000000000100000000000000000002000000000000040000000040800000000000000000000000000000000000000000000800000000000000000000000000000000000000000000000000000000000000000000000000000000",
      "type": "0x2",
      "effectiveGasPrice": "0x19b5986e5"
    },
    {
      "transactionHash": "0x836c828766ced76d2f532c0c341fad48396207083780e0b5200847a3edd20f05",
      "transactionIndex": "0xb",
      "blockHash": "0xe4756efda8e645e7531e80ada4a31b7a40ce45879b89b1d8c952c93689b68c53",
      "blockNumber": "0x604a08",
      "from": "0x5036388C540994Ed7b74b82F71175a441F85BdA1",
      "to": "0x66B4cF3Be49431371E4241C462B4A75ae3a6E986",
      "cumulativeGasUsed": "0x3667e0",
      "gasUsed": "0x685f",
      "contractAddress": null,
      "logs": [
        {
          "address": "0x66B4cF3Be49431371E4241C462B4A75ae3a6E986",
          "topics": [
            "0x8c5be1e5ebec7d5bd14f71427d1e84f3dd0314c0f7b2291e5b200ac8c7c3b925",
            "0x0000000000000000000000005036388c540994ed7b74b82f71175a441f85bda1",
            "0x000000000000000000000000000000000022d473030f116ddee9f6b43ac78ba3"
          ],
          "data": "0xffffffffffffffffffffffffffffffffffffffffffffffffffffffffffffffff",
          "blockHash": "0xe4756efda8e645e7531e80ada4a31b7a40ce45879b89b1d8c952c93689b68c53",
          "blockNumber": "0x604a08",
          "transactionHash": "0x836c828766ced76d2f532c0c341fad48396207083780e0b5200847a3edd20f05",
          "transactionIndex": "0xb",
          "logIndex": "0x1b",
          "removed": false
        }
      ],
      "status": "0x1",
      "logsBloom": "0x00000000000000000000800000000000000000000000000000000000000000000000000000000000000000000000000000000800800000000000000000200000000000000000000000004000000000000000000000000800000000000000000000000000000000000000000000002000000000000000000000000000000000000000000000000000000000000000000000000000000000000000000000000000020400000000000000000000000000000000000000000000000000000000000000000000000000000000000000000000000000000000020000000000000000000010000000000000000100000000000000000000000000000000000000000000",
      "type": "0x2",
      "effectiveGasPrice": "0x19b5986e5"
    },
    {
      "transactionHash": "0x495890f56f363d04a5026f09812607f08e61f9654c48e277a0915c920b31f7ee",
      "transactionIndex": "0xc",
      "blockHash": "0xe4756efda8e645e7531e80ada4a31b7a40ce45879b89b1d8c952c93689b68c53",
      "blockNumber": "0x604a08",
      "from": "0x5036388C540994Ed7b74b82F71175a441F85BdA1",
      "to": "0x69221a99e5Bc30E0cf891992e958E3Ba3815bfc6",
      "cumulativeGasUsed": "0x36d03f",
      "gasUsed": "0x685f",
      "contractAddress": null,
      "logs": [
        {
          "address": "0x69221a99e5Bc30E0cf891992e958E3Ba3815bfc6",
          "topics": [
            "0x8c5be1e5ebec7d5bd14f71427d1e84f3dd0314c0f7b2291e5b200ac8c7c3b925",
            "0x0000000000000000000000005036388c540994ed7b74b82f71175a441f85bda1",
            "0x000000000000000000000000000000000022d473030f116ddee9f6b43ac78ba3"
          ],
          "data": "0xffffffffffffffffffffffffffffffffffffffffffffffffffffffffffffffff",
          "blockHash": "0xe4756efda8e645e7531e80ada4a31b7a40ce45879b89b1d8c952c93689b68c53",
          "blockNumber": "0x604a08",
          "transactionHash": "0x495890f56f363d04a5026f09812607f08e61f9654c48e277a0915c920b31f7ee",
          "transactionIndex": "0xc",
          "logIndex": "0x1c",
          "removed": false
        }
      ],
      "status": "0x1",
      "logsBloom": "0x00000000000000000000000000000000000000000000000000000000000000000000000000000000000200000000000000000000800000000000000000200000000000000000000000004000000000000000000000000800000000000000000000000000000000000000000000002000000000000000000000000000000000000000000000000000000000000000000000000000000000000000000000000000020000000000000000000000000000000000000000000000000000000000000000000000000000000000000000000000000000000000020000000000000000000030000000000000000100000000000000000000000000000000000000000002",
      "type": "0x2",
      "effectiveGasPrice": "0x19b5986e5"
    },
    {
      "transactionHash": "0x10c9473569dfd7a2b958d606d774f8e2fe37a1426f8d5ff2eed6bcdec580844f",
      "transactionIndex": "0xd",
      "blockHash": "0xe4756efda8e645e7531e80ada4a31b7a40ce45879b89b1d8c952c93689b68c53",
      "blockNumber": "0x604a08",
      "from": "0x5036388C540994Ed7b74b82F71175a441F85BdA1",
      "to": "0x000000000022D473030F116dDEE9F6B43aC78BA3",
      "cumulativeGasUsed": "0x373d4d",
      "gasUsed": "0x6d0e",
      "contractAddress": null,
      "logs": [
        {
          "address": "0x000000000022D473030F116dDEE9F6B43aC78BA3",
          "topics": [
            "0xda9fa7c1b00402c17d0161b249b1ab8bbec047c5a52207b9c112deffd817036b",
            "0x0000000000000000000000005036388c540994ed7b74b82f71175a441f85bda1",
            "0x00000000000000000000000066b4cf3be49431371e4241c462b4a75ae3a6e986",
            "0x000000000000000000000000a12da7dfd0792a10a5b05b575545bd685798ce35"
          ],
          "data": "0x000000000000000000000000ffffffffffffffffffffffffffffffffffffffff0000000000000000000000000000000000000000000000000000ffffffffffff",
          "blockHash": "0xe4756efda8e645e7531e80ada4a31b7a40ce45879b89b1d8c952c93689b68c53",
          "blockNumber": "0x604a08",
          "transactionHash": "0x10c9473569dfd7a2b958d606d774f8e2fe37a1426f8d5ff2eed6bcdec580844f",
          "transactionIndex": "0xd",
          "logIndex": "0x1d",
          "removed": false
        }
      ],
      "status": "0x1",
      "logsBloom": "0x00010000000000000000000000000000000000000000000000000000000000000000000000000000000000000000000000000000000000000000000000080000000000000000000000000000000000000000000000000000001000000000000000000000000000000000004000002000000000000000000000000000000000000020000000000000000000000000000000000000000000000000000000000200000000000000000000000000000000000000000000000000000000080000000000000040000000000000000000000000000200000000020040000000000000000000000000000000000100100000000000000000000000000000000000000400",
      "type": "0x2",
      "effectiveGasPrice": "0x19b5986e5"
    },
    {
      "transactionHash": "0x5c8461e368cf709eaa19ae604ad70266de774ef59f2565240480b668b65fbd9b",
      "transactionIndex": "0xe",
      "blockHash": "0xe4756efda8e645e7531e80ada4a31b7a40ce45879b89b1d8c952c93689b68c53",
      "blockNumber": "0x604a08",
      "from": "0x5036388C540994Ed7b74b82F71175a441F85BdA1",
      "to": "0x000000000022D473030F116dDEE9F6B43aC78BA3",
      "cumulativeGasUsed": "0x37aa5b",
      "gasUsed": "0x6d0e",
      "contractAddress": null,
      "logs": [
        {
          "address": "0x000000000022D473030F116dDEE9F6B43aC78BA3",
          "topics": [
            "0xda9fa7c1b00402c17d0161b249b1ab8bbec047c5a52207b9c112deffd817036b",
            "0x0000000000000000000000005036388c540994ed7b74b82f71175a441f85bda1",
            "0x00000000000000000000000069221a99e5bc30e0cf891992e958e3ba3815bfc6",
            "0x000000000000000000000000a12da7dfd0792a10a5b05b575545bd685798ce35"
          ],
          "data": "0x000000000000000000000000ffffffffffffffffffffffffffffffffffffffff0000000000000000000000000000000000000000000000000000ffffffffffff",
          "blockHash": "0xe4756efda8e645e7531e80ada4a31b7a40ce45879b89b1d8c952c93689b68c53",
          "blockNumber": "0x604a08",
          "transactionHash": "0x5c8461e368cf709eaa19ae604ad70266de774ef59f2565240480b668b65fbd9b",
          "transactionIndex": "0xe",
          "logIndex": "0x1e",
          "removed": false
        }
      ],
      "status": "0x1",
      "logsBloom": "0x00010000000000000000000000000000000000000000000000000000000000000000000000000000000000000000000000000000000000000000000000080000000000000000000000000000000000000000000000000000001000000000000000000000000000000000000000002000000000000000000000000800000000000020000000000000000000000000000000000000000000000000000000000200000000000080000000000000000000000010000000000000000000080000000000000040000000000000000000000000000000000000020040000000000000000000000000000000000100000000000000000000000000000000000000000400",
      "type": "0x2",
      "effectiveGasPrice": "0x19b5986e5"
    },
    {
      "transactionHash": "0xcaadea9cf064079d9090d44688ff1b058837b9b05df17c462306e2a49762572d",
      "transactionIndex": "0xf",
      "blockHash": "0xe4756efda8e645e7531e80ada4a31b7a40ce45879b89b1d8c952c93689b68c53",
      "blockNumber": "0x604a08",
      "from": "0x5036388C540994Ed7b74b82F71175a441F85BdA1",
      "to": "0xa12Da7dfD0792a10a5b05B575545Bd685798Ce35",
      "cumulativeGasUsed": "0x3bcdf2",
      "gasUsed": "0x42397",
      "contractAddress": null,
      "logs": [
        {
          "address": "0x92B5c1CB2999c45804A60d6529D77DeEF00fb839",
          "topics": [
            "0x0d82cd00e63fe9bc4a4369e9e774a3d415ef739752dcc31e14616d40df074be3",
            "0x0000000000000000000000001208016b76c5ac42d606d2da885a7f04d38fc08d",
            "0x0000000000000000000000005036388c540994ed7b74b82f71175a441f85bda1"
          ],
          "data": "0x00000000000000000000000000000000000000000000000000000000000000200000000000000000000000000000000000000000000000000000000000000002000000000000000000000000000000000000000000000002b5e3af16b1880000000000000000000000000000000000000000000000000002b5e3af16b1880000",
          "blockHash": "0xe4756efda8e645e7531e80ada4a31b7a40ce45879b89b1d8c952c93689b68c53",
          "blockNumber": "0x604a08",
          "transactionHash": "0xcaadea9cf064079d9090d44688ff1b058837b9b05df17c462306e2a49762572d",
          "transactionIndex": "0xf",
          "logIndex": "0x1f",
          "removed": false
        },
        {
          "address": "0x92B5c1CB2999c45804A60d6529D77DeEF00fb839",
          "topics": [
            "0xd1398bee19313d6bf672ccb116e51f4a1a947e91c757907f51fbb5b5e56c698f",
            "0x0000000000000000000000001208016b76c5ac42d606d2da885a7f04d38fc08d",
            "0x0000000000000000000000000000000000000000000000000000000000000000",
            "0x0000000000000000000000000000000000000000000000000000000000000000"
          ],
          "data": "0x00000000000000000000000000000000000000000000000000000000000f4240",
          "blockHash": "0xe4756efda8e645e7531e80ada4a31b7a40ce45879b89b1d8c952c93689b68c53",
          "blockNumber": "0x604a08",
          "transactionHash": "0xcaadea9cf064079d9090d44688ff1b058837b9b05df17c462306e2a49762572d",
          "transactionIndex": "0xf",
          "logIndex": "0x20",
          "removed": false
        },
        {
          "address": "0x1208016B76c5Ac42d606D2dA885A7f04d38FC08d",
          "topics": [
            "0xddf252ad1be2c89b69c2b068fc378daa952ba7f163c4a11628f55a4df523b3ef",
            "0x0000000000000000000000000000000000000000000000000000000000000000",
            "0x0000000000000000000000000000000000000000000000000000000000000000"
          ],
          "data": "0x00000000000000000000000000000000000000000000000000000000000f4240",
          "blockHash": "0xe4756efda8e645e7531e80ada4a31b7a40ce45879b89b1d8c952c93689b68c53",
          "blockNumber": "0x604a08",
          "transactionHash": "0xcaadea9cf064079d9090d44688ff1b058837b9b05df17c462306e2a49762572d",
          "transactionIndex": "0xf",
          "logIndex": "0x21",
          "removed": false
        },
        {
          "address": "0x92B5c1CB2999c45804A60d6529D77DeEF00fb839",
          "topics": [
            "0xd1398bee19313d6bf672ccb116e51f4a1a947e91c757907f51fbb5b5e56c698f",
            "0x0000000000000000000000001208016b76c5ac42d606d2da885a7f04d38fc08d",
            "0x0000000000000000000000000000000000000000000000000000000000000000",
            "0x0000000000000000000000005036388c540994ed7b74b82f71175a441f85bda1"
          ],
          "data": "0x000000000000000000000000000000000000000000000002b5e3af16b178bdc0",
          "blockHash": "0xe4756efda8e645e7531e80ada4a31b7a40ce45879b89b1d8c952c93689b68c53",
          "blockNumber": "0x604a08",
          "transactionHash": "0xcaadea9cf064079d9090d44688ff1b058837b9b05df17c462306e2a49762572d",
          "transactionIndex": "0xf",
          "logIndex": "0x22",
          "removed": false
        },
        {
          "address": "0x1208016B76c5Ac42d606D2dA885A7f04d38FC08d",
          "topics": [
            "0xddf252ad1be2c89b69c2b068fc378daa952ba7f163c4a11628f55a4df523b3ef",
            "0x0000000000000000000000000000000000000000000000000000000000000000",
            "0x0000000000000000000000005036388c540994ed7b74b82f71175a441f85bda1"
          ],
          "data": "0x000000000000000000000000000000000000000000000002b5e3af16b178bdc0",
          "blockHash": "0xe4756efda8e645e7531e80ada4a31b7a40ce45879b89b1d8c952c93689b68c53",
          "blockNumber": "0x604a08",
          "transactionHash": "0xcaadea9cf064079d9090d44688ff1b058837b9b05df17c462306e2a49762572d",
          "transactionIndex": "0xf",
          "logIndex": "0x23",
          "removed": false
        },
        {
          "address": "0x92B5c1CB2999c45804A60d6529D77DeEF00fb839",
          "topics": [
            "0xcad8c9d32507393b6508ca4a888b81979919b477510585bde8488f153072d6f3",
            "0x0000000000000000000000001208016b76c5ac42d606d2da885a7f04d38fc08d"
          ],
          "data": "0x",
          "blockHash": "0xe4756efda8e645e7531e80ada4a31b7a40ce45879b89b1d8c952c93689b68c53",
          "blockNumber": "0x604a08",
          "transactionHash": "0xcaadea9cf064079d9090d44688ff1b058837b9b05df17c462306e2a49762572d",
          "transactionIndex": "0xf",
          "logIndex": "0x24",
          "removed": false
        },
        {
          "address": "0x66B4cF3Be49431371E4241C462B4A75ae3a6E986",
          "topics": [
            "0xddf252ad1be2c89b69c2b068fc378daa952ba7f163c4a11628f55a4df523b3ef",
            "0x0000000000000000000000005036388c540994ed7b74b82f71175a441f85bda1",
            "0x00000000000000000000000092b5c1cb2999c45804a60d6529d77deef00fb839"
          ],
          "data": "0x000000000000000000000000000000000000000000000002b5e3af16b1880000",
          "blockHash": "0xe4756efda8e645e7531e80ada4a31b7a40ce45879b89b1d8c952c93689b68c53",
          "blockNumber": "0x604a08",
          "transactionHash": "0xcaadea9cf064079d9090d44688ff1b058837b9b05df17c462306e2a49762572d",
          "transactionIndex": "0xf",
          "logIndex": "0x25",
          "removed": false
        },
        {
          "address": "0x69221a99e5Bc30E0cf891992e958E3Ba3815bfc6",
          "topics": [
            "0xddf252ad1be2c89b69c2b068fc378daa952ba7f163c4a11628f55a4df523b3ef",
            "0x0000000000000000000000005036388c540994ed7b74b82f71175a441f85bda1",
            "0x00000000000000000000000092b5c1cb2999c45804a60d6529d77deef00fb839"
          ],
          "data": "0x000000000000000000000000000000000000000000000002b5e3af16b1880000",
          "blockHash": "0xe4756efda8e645e7531e80ada4a31b7a40ce45879b89b1d8c952c93689b68c53",
          "blockNumber": "0x604a08",
          "transactionHash": "0xcaadea9cf064079d9090d44688ff1b058837b9b05df17c462306e2a49762572d",
          "transactionIndex": "0xf",
          "logIndex": "0x26",
          "removed": false
        }
      ],
      "status": "0x1",
      "logsBloom": "0x00000000000000000040800000000000000000000000000000000000000000000000000000000000000200000000000000000800000000000000000000000000000010000100000000000008000000000000000000020000000000000000000000000000020000010000000000022800000000000000000000000010000000001000008400000400000014000000000000000000000000000000010000000000000400c02000000000000000000000000000000000000000000020000000000000000006000000000000000000000000000000000000020000000000800020000020000000000000000100000110000000000000000000000000000000000002",
      "type": "0x2",
      "effectiveGasPrice": "0x19b5986e5"
    }
  ],
  "libraries": [],
  "pending": [],
  "returns": {},
  "timestamp": 1720982198,
  "chain": 11155111,
  "commit": "af5dfd6"
}